{"abi":[{"inputs":[{"internalType":"address","name":"_dappTokenAddress","type":"address"}],"stateMutability":"nonpayable","type":"constructor","name":"constructor"},{"anonymous":false,"inputs":[{"indexed":true,"internalType":"address","name":"previousOwner","type":"address"},{"indexed":true,"internalType":"address","name":"newOwner","type":"address"}],"name":"OwnershipTransferred","type":"event"},{"inputs":[{"internalType":"address","name":"_token","type":"address"}],"name":"addAllowedTokens","outputs":[],"stateMutability":"nonpayable","type":"function"},{"inputs":[{"internalType":"uint256","name":"","type":"uint256"}],"name":"allowedTokens","outputs":[{"internalType":"address","name":"","type":"address"}],"stateMutability":"view","type":"function"},{"inputs":[],"name":"dappToken","outputs":[{"internalType":"contract IERC20","name":"","type":"address"}],"stateMutability":"view","type":"function"},{"inputs":[{"internalType":"address","name":"_token","type":"address"}],"name":"getTokenValue","outputs":[{"internalType":"uint256","name":"","type":"uint256"},{"internalType":"uint256","name":"","type":"uint256"}],"stateMutability":"view","type":"function"},{"inputs":[{"internalType":"address","name":"_user","type":"address"},{"internalType":"address","name":"_token","type":"address"}],"name":"getUserSingleTokenValue","outputs":[{"internalType":"uint256","name":"","type":"uint256"}],"stateMutability":"view","type":"function"},{"inputs":[{"internalType":"address","name":"_user","type":"address"}],"name":"getUserTotalValue","outputs":[{"internalType":"uint256","name":"","type":"uint256"}],"stateMutability":"view","type":"function"},{"inputs":[],"name":"issueTokens","outputs":[],"stateMutability":"nonpayable","type":"function"},{"inputs":[],"name":"owner","outputs":[{"internalType":"address","name":"","type":"address"}],"stateMutability":"view","type":"function"},{"inputs":[],"name":"renounceOwnership","outputs":[],"stateMutability":"nonpayable","type":"function"},{"inputs":[{"internalType":"address","name":"_token","type":"address"},{"internalType":"address","name":"_priceFeed","type":"address"}],"name":"setPriceFeedContract","outputs":[],"stateMutability":"nonpayable","type":"function"},{"inputs":[{"internalType":"uint256","name":"_amount","type":"uint256"},{"internalType":"address","name":"_token","type":"address"}],"name":"stakeTokens","outputs":[],"stateMutability":"nonpayable","type":"function"},{"inputs":[{"internalType":"uint256","name":"","type":"uint256"}],"name":"stakers","outputs":[{"internalType":"address","name":"","type":"address"}],"stateMutability":"view","type":"function"},{"inputs":[{"internalType":"address","name":"","type":"address"},{"internalType":"address","name":"","type":"address"}],"name":"stakingBalance","outputs":[{"internalType":"uint256","name":"","type":"uint256"}],"stateMutability":"view","type":"function"},{"inputs":[{"internalType":"address","name":"_token","type":"address"}],"name":"tokenIsAllowed","outputs":[{"internalType":"bool","name":"","type":"bool"}],"stateMutability":"nonpayable","type":"function"},{"inputs":[{"internalType":"address","name":"","type":"address"}],"name":"tokenPriceFeedMapping","outputs":[{"internalType":"address","name":"","type":"address"}],"stateMutability":"view","type":"function"},{"inputs":[{"internalType":"address","name":"newOwner","type":"address"}],"name":"transferOwnership","outputs":[],"stateMutability":"nonpayable","type":"function"},{"inputs":[{"internalType":"address","name":"","type":"address"}],"name":"uniqueTokenStaked","outputs":[{"internalType":"uint256","name":"","type":"uint256"}],"stateMutability":"view","type":"function"},{"inputs":[{"internalType":"address","name":"_token","type":"address"}],"name":"unstakeTokens","outputs":[],"stateMutability":"nonpayable","type":"function"}],"bytecode":"608060405234801561001057600080fd5b506040516110d93803806110d983398101604081905261002f916100ad565b6100383361005d565b600680546001600160a01b0319166001600160a01b03929092169190911790556100dd565b600080546001600160a01b038381166001600160a01b0319831681178455604051919092169283917f8be0079c531659141344cd1fd0a4f28419497f9722a3daafe3b4186f6b6457e09190a35050565b6000602082840312156100bf57600080fd5b81516001600160a01b03811681146100d657600080fd5b9392505050565b610fed806100ec6000396000f3fe608060405234801561001057600080fd5b50600436106101165760003560e01c806360ab5852116100a2578063af3f5e2211610071578063af3f5e2214610262578063dd5b846714610275578063f1c5d6c214610298578063f2fde38b146102c0578063fd5e6dd1146102d357600080fd5b806360ab58521461022e578063715018a614610236578063877dd39d1461023e5780638da5cb5b1461025157600080fd5b806329161a00116100e957806329161a00146101aa5780632d1ad8b8146101d557806355b08abc146101e85780635e5f2e26146102085780635eb186f81461021b57600080fd5b80630bea440d1461011b578063171e44ea14610130578063276b11da1461014357806327927b3e14610169575b600080fd5b61012e610129366004610c9b565b6102e6565b005b61012e61013e366004610cc7565b6104d8565b610156610151366004610ce9565b610553565b6040519081526020015b60405180910390f35b610192610177366004610cc7565b6004602052600090815260409020546001600160a01b031681565b6040516001600160a01b039091168152602001610160565b6101566101b8366004610ce9565b600260209081526000928352604080842090915290825290205481565b61012e6101e3366004610cc7565b6105da565b6101566101f6366004610cc7565b60036020526000908152604090205481565b610192610216366004610d13565b610713565b600654610192906001600160a01b031681565b61012e61073d565b61012e610849565b61012e61024c366004610ce9565b61087f565b6000546001600160a01b0316610192565b610156610270366004610cc7565b6108d7565b610288610283366004610cc7565b610994565b6040519015158152602001610160565b6102ab6102a6366004610cc7565b6109fe565b60408051928352602083019190915201610160565b61012e6102ce366004610cc7565b610b1c565b6101926102e1366004610d13565b610bb4565b6000821161033b5760405162461bcd60e51b815260206004820152601a60248201527f416d6f756e74206d757374206265206d6f7265207468616e203000000000000060448201526064015b60405180910390fd5b61034481610994565b61039c5760405162461bcd60e51b815260206004820152602360248201527f5468697320746f6b656e2063757272656e746c792069736e277420616c6c6f7760448201526232b21760e91b6064820152608401610332565b6040516323b872dd60e01b8152336004820152306024820152604481018390526001600160a01b038216906323b872dd90606401602060405180830381600087803b1580156103ea57600080fd5b505af11580156103fe573d6000803e3d6000fd5b505050506040513d601f19601f820116820180604052508101906104229190610d2c565b5061042d3382610bc4565b6001600160a01b038116600090815260026020908152604080832033845290915290205461045c908390610d64565b6001600160a01b0382166000908152600260209081526040808320338452825280832093909355600390522054600114156104d457600580546001810182556000919091527f036b6384b5eca791c62761152d0c79bb0604c104a5fb6f4eb0703f3154bb3db00180546001600160a01b031916331790555b5050565b6000546001600160a01b031633146105025760405162461bcd60e51b815260040161033290610d7c565b6001805480820182556000919091527fb10e2d527612073b26eecdfd717e6a320cf44b4afac2b0732d9fcbe2b7fa0cf60180546001600160a01b0319166001600160a01b0392909216919091179055565b6001600160a01b038216600090815260036020526040812054610578575060006105d4565b600080610584846109fe565b909250905061059481600a610e95565b6001600160a01b038086166000908152600260209081526040808320938a16835292905220546105c5908490610ea1565b6105cf9190610ec0565b925050505b92915050565b6001600160a01b0381166000908152600260209081526040808320338452909152902054806106445760405162461bcd60e51b8152602060048201526016602482015275042616c616e6365206d757374206265206d6f726520360541b6044820152606401610332565b60405163a9059cbb60e01b8152336004820152602481018290526001600160a01b0383169063a9059cbb90604401602060405180830381600087803b15801561068c57600080fd5b505af11580156106a0573d6000803e3d6000fd5b505050506040513d601f19601f820116820180604052508101906106c49190610d2c565b506001600160a01b0382166000908152600260209081526040808320338452825280832083905560039091529020546106ff90600190610ee2565b336000908152600360205260409020555050565b6001818154811061072357600080fd5b6000918252602090912001546001600160a01b0316905081565b6000546001600160a01b031633146107675760405162461bcd60e51b815260040161033290610d7c565b60005b6005548110156108465760006005828154811061078957610789610ef9565b60009182526020822001546001600160a01b031691506107a8826108d7565b60065460405163a9059cbb60e01b81526001600160a01b0385811660048301526024820184905292935091169063a9059cbb90604401602060405180830381600087803b1580156107f857600080fd5b505af115801561080c573d6000803e3d6000fd5b505050506040513d601f19601f820116820180604052508101906108309190610d2c565b505050808061083e90610f0f565b91505061076a565b50565b6000546001600160a01b031633146108735760405162461bcd60e51b815260040161033290610d7c565b61087d6000610c2f565b565b6000546001600160a01b031633146108a95760405162461bcd60e51b815260040161033290610d7c565b6001600160a01b03918216600090815260046020526040902080546001600160a01b03191691909216179055565b6001600160a01b03811660009081526003602052604081205481906109315760405162461bcd60e51b815260206004820152601060248201526f4e6f20746f6b656e207374616b65642160801b6044820152606401610332565b60005b60015481101561098d5761096f846001838154811061095557610955610ef9565b6000918252602090912001546001600160a01b0316610553565b6109799083610d64565b91508061098581610f0f565b915050610934565b5092915050565b6000805b6001548110156109f557826001600160a01b0316600182815481106109bf576109bf610ef9565b6000918252602090912001546001600160a01b031614156109e35750600192915050565b806109ed81610f0f565b915050610998565b50600092915050565b6001600160a01b038082166000908152600460208190526040808320548151633fabe5a360e21b815291519394859491169283928592849263feaf968c928082019260a0929091829003018186803b158015610a5957600080fd5b505afa158015610a6d573d6000803e3d6000fd5b505050506040513d601f19601f82011682018060405250810190610a919190610f44565b5050509150506000826001600160a01b031663313ce5676040518163ffffffff1660e01b815260040160206040518083038186803b158015610ad257600080fd5b505afa158015610ae6573d6000803e3d6000fd5b505050506040513d601f19601f82011682018060405250810190610b0a9190610f94565b919760ff909216965090945050505050565b6000546001600160a01b03163314610b465760405162461bcd60e51b815260040161033290610d7c565b6001600160a01b038116610bab5760405162461bcd60e51b815260206004820152602660248201527f4f776e61626c653a206e6577206f776e657220697320746865207a65726f206160448201526564647265737360d01b6064820152608401610332565b61084681610c2f565b6005818154811061072357600080fd5b6001600160a01b038082166000908152600260209081526040808320938616835292905220546104d4576001600160a01b038216600090815260036020526040902054610c12906001610d64565b6001600160a01b0383166000908152600360205260409020555050565b600080546001600160a01b038381166001600160a01b0319831681178455604051919092169283917f8be0079c531659141344cd1fd0a4f28419497f9722a3daafe3b4186f6b6457e09190a35050565b80356001600160a01b0381168114610c9657600080fd5b919050565b60008060408385031215610cae57600080fd5b82359150610cbe60208401610c7f565b90509250929050565b600060208284031215610cd957600080fd5b610ce282610c7f565b9392505050565b60008060408385031215610cfc57600080fd5b610d0583610c7f565b9150610cbe60208401610c7f565b600060208284031215610d2557600080fd5b5035919050565b600060208284031215610d3e57600080fd5b81518015158114610ce257600080fd5b634e487b7160e01b600052601160045260246000fd5b60008219821115610d7757610d77610d4e565b500190565b6020808252818101527f4f776e61626c653a2063616c6c6572206973206e6f7420746865206f776e6572604082015260600190565b600181815b80851115610dec578160001904821115610dd257610dd2610d4e565b80851615610ddf57918102915b93841c9390800290610db6565b509250929050565b600082610e03575060016105d4565b81610e10575060006105d4565b8160018114610e265760028114610e3057610e4c565b60019150506105d4565b60ff841115610e4157610e41610d4e565b50506001821b6105d4565b5060208310610133831016604e8410600b8410161715610e6f575081810a6105d4565b610e798383610db1565b8060001904821115610e8d57610e8d610d4e565b029392505050565b6000610ce28383610df4565b6000816000190483118215151615610ebb57610ebb610d4e565b500290565b600082610edd57634e487b7160e01b600052601260045260246000fd5b500490565b600082821015610ef457610ef4610d4e565b500390565b634e487b7160e01b600052603260045260246000fd5b6000600019821415610f2357610f23610d4e565b5060010190565b805169ffffffffffffffffffff81168114610c9657600080fd5b600080600080600060a08688031215610f5c57600080fd5b610f6586610f2a565b9450602086015193506040860151925060608601519150610f8860808701610f2a565b90509295509295909350565b600060208284031215610fa657600080fd5b815160ff81168114610ce257600080fdfea2646970667358221220ce2747b9689b162eedfebb87a77dfecb81c54ab583eff6806229bcbe10ffa42b64736f6c63430008090033","bytecodeSha1":"a4a82513b5a02193873083124c8898e57b1bc7b3","compiler":{"evm_version":"istanbul","optimizer":{"enabled":true,"runs":200},"version":"0.8.9+commit.e5eed63a"},"contractName":"TokenFarm","language":"Solidity","natspec":{"kind":"dev","methods":{"owner()":{"details":"Returns the address of the current owner."},"renounceOwnership()":{"details":"Leaves the contract without owner. It will not be possible to call `onlyOwner` functions anymore. Can only be called by the current owner. NOTE: Renouncing ownership will leave the contract without an owner, thereby removing any functionality that is only available to the owner."},"transferOwnership(address)":{"details":"Transfers ownership of the contract to a new account (`newOwner`). Can only be called by the current owner."}},"version":1},"opcodes":"PUSH1 0x80 PUSH1 0x40 MSTORE CALLVALUE DUP1 ISZERO PUSH2 0x10 JUMPI PUSH1 0x0 DUP1 REVERT JUMPDEST POP PUSH1 0x4 CALLDATASIZE LT PUSH2 0x116 JUMPI PUSH1 0x0 CALLDATALOAD PUSH1 0xE0 SHR DUP1 PUSH4 0x60AB5852 GT PUSH2 0xA2 JUMPI DUP1 PUSH4 0xAF3F5E22 GT PUSH2 0x71 JUMPI DUP1 PUSH4 0xAF3F5E22 EQ PUSH2 0x262 JUMPI DUP1 PUSH4 0xDD5B8467 EQ PUSH2 0x275 JUMPI DUP1 PUSH4 0xF1C5D6C2 EQ PUSH2 0x298 JUMPI DUP1 PUSH4 0xF2FDE38B EQ PUSH2 0x2C0 JUMPI DUP1 PUSH4 0xFD5E6DD1 EQ PUSH2 0x2D3 JUMPI PUSH1 0x0 DUP1 REVERT JUMPDEST DUP1 PUSH4 0x60AB5852 EQ PUSH2 0x22E JUMPI DUP1 PUSH4 0x715018A6 EQ PUSH2 0x236 JUMPI DUP1 PUSH4 0x877DD39D EQ PUSH2 0x23E JUMPI DUP1 PUSH4 0x8DA5CB5B EQ PUSH2 0x251 JUMPI PUSH1 0x0 DUP1 REVERT JUMPDEST DUP1 PUSH4 0x29161A00 GT PUSH2 0xE9 JUMPI DUP1 PUSH4 0x29161A00 EQ PUSH2 0x1AA JUMPI DUP1 PUSH4 0x2D1AD8B8 EQ PUSH2 0x1D5 JUMPI DUP1 PUSH4 0x55B08ABC EQ PUSH2 0x1E8 JUMPI DUP1 PUSH4 0x5E5F2E26 EQ PUSH2 0x208 JUMPI DUP1 PUSH4 0x5EB186F8 EQ PUSH2 0x21B JUMPI PUSH1 0x0 DUP1 REVERT JUMPDEST DUP1 PUSH4 0xBEA440D EQ PUSH2 0x11B JUMPI DUP1 PUSH4 0x171E44EA EQ PUSH2 0x130 JUMPI DUP1 PUSH4 0x276B11DA EQ PUSH2 0x143 JUMPI DUP1 PUSH4 0x27927B3E EQ PUSH2 0x169 JUMPI JUMPDEST PUSH1 0x0 DUP1 REVERT JUMPDEST PUSH2 0x12E PUSH2 0x129 CALLDATASIZE PUSH1 0x4 PUSH2 0xC9B JUMP JUMPDEST PUSH2 0x2E6 JUMP JUMPDEST STOP JUMPDEST PUSH2 0x12E PUSH2 0x13E CALLDATASIZE PUSH1 0x4 PUSH2 0xCC7 JUMP JUMPDEST PUSH2 0x4D8 JUMP JUMPDEST PUSH2 0x156 PUSH2 0x151 CALLDATASIZE PUSH1 0x4 PUSH2 0xCE9 JUMP JUMPDEST PUSH2 0x553 JUMP JUMPDEST PUSH1 0x40 MLOAD SWAP1 DUP2 MSTORE PUSH1 0x20 ADD JUMPDEST PUSH1 0x40 MLOAD DUP1 SWAP2 SUB SWAP1 RETURN JUMPDEST PUSH2 0x192 PUSH2 0x177 CALLDATASIZE PUSH1 0x4 PUSH2 0xCC7 JUMP JUMPDEST PUSH1 0x4 PUSH1 0x20 MSTORE PUSH1 0x0 SWAP1 DUP2 MSTORE PUSH1 0x40 SWAP1 KECCAK256 SLOAD PUSH1 0x1 PUSH1 0x1 PUSH1 0xA0 SHL SUB AND DUP2 JUMP JUMPDEST PUSH1 0x40 MLOAD PUSH1 0x1 PUSH1 0x1 PUSH1 0xA0 SHL SUB SWAP1 SWAP2 AND DUP2 MSTORE PUSH1 0x20 ADD PUSH2 0x160 JUMP JUMPDEST PUSH2 0x156 PUSH2 0x1B8 CALLDATASIZE PUSH1 0x4 PUSH2 0xCE9 JUMP JUMPDEST PUSH1 0x2 PUSH1 0x20 SWAP1 DUP2 MSTORE PUSH1 0x0 SWAP3 DUP4 MSTORE PUSH1 0x40 DUP1 DUP5 KECCAK256 SWAP1 SWAP2 MSTORE SWAP1 DUP3 MSTORE SWAP1 KECCAK256 SLOAD DUP2 JUMP JUMPDEST PUSH2 0x12E PUSH2 0x1E3 CALLDATASIZE PUSH1 0x4 PUSH2 0xCC7 JUMP JUMPDEST PUSH2 0x5DA JUMP JUMPDEST PUSH2 0x156 PUSH2 0x1F6 CALLDATASIZE PUSH1 0x4 PUSH2 0xCC7 JUMP JUMPDEST PUSH1 0x3 PUSH1 0x20 MSTORE PUSH1 0x0 SWAP1 DUP2 MSTORE PUSH1 0x40 SWAP1 KECCAK256 SLOAD DUP2 JUMP JUMPDEST PUSH2 0x192 PUSH2 0x216 CALLDATASIZE PUSH1 0x4 PUSH2 0xD13 JUMP JUMPDEST PUSH2 0x713 JUMP JUMPDEST PUSH1 0x6 SLOAD PUSH2 0x192 SWAP1 PUSH1 0x1 PUSH1 0x1 PUSH1 0xA0 SHL SUB AND DUP2 JUMP JUMPDEST PUSH2 0x12E PUSH2 0x73D JUMP JUMPDEST PUSH2 0x12E PUSH2 0x849 JUMP JUMPDEST PUSH2 0x12E PUSH2 0x24C CALLDATASIZE PUSH1 0x4 PUSH2 0xCE9 JUMP JUMPDEST PUSH2 0x87F JUMP JUMPDEST PUSH1 0x0 SLOAD PUSH1 0x1 PUSH1 0x1 PUSH1 0xA0 SHL SUB AND PUSH2 0x192 JUMP JUMPDEST PUSH2 0x156 PUSH2 0x270 CALLDATASIZE PUSH1 0x4 PUSH2 0xCC7 JUMP JUMPDEST PUSH2 0x8D7 JUMP JUMPDEST PUSH2 0x288 PUSH2 0x283 CALLDATASIZE PUSH1 0x4 PUSH2 0xCC7 JUMP JUMPDEST PUSH2 0x994 JUMP JUMPDEST PUSH1 0x40 MLOAD SWAP1 ISZERO ISZERO DUP2 MSTORE PUSH1 0x20 ADD PUSH2 0x160 JUMP JUMPDEST PUSH2 0x2AB PUSH2 0x2A6 CALLDATASIZE PUSH1 0x4 PUSH2 0xCC7 JUMP JUMPDEST PUSH2 0x9FE JUMP JUMPDEST PUSH1 0x40 DUP1 MLOAD SWAP3 DUP4 MSTORE PUSH1 0x20 DUP4 ADD SWAP2 SWAP1 SWAP2 MSTORE ADD PUSH2 0x160 JUMP JUMPDEST PUSH2 0x12E PUSH2 0x2CE CALLDATASIZE PUSH1 0x4 PUSH2 0xCC7 JUMP JUMPDEST PUSH2 0xB1C JUMP JUMPDEST PUSH2 0x192 PUSH2 0x2E1 CALLDATASIZE PUSH1 0x4 PUSH2 0xD13 JUMP JUMPDEST PUSH2 0xBB4 JUMP JUMPDEST PUSH1 0x0 DUP3 GT PUSH2 0x33B JUMPI PUSH1 0x40 MLOAD PUSH3 0x461BCD PUSH1 0xE5 SHL DUP2 MSTORE PUSH1 0x20 PUSH1 0x4 DUP3 ADD MSTORE PUSH1 0x1A PUSH1 0x24 DUP3 ADD MSTORE PUSH32 0x416D6F756E74206D757374206265206D6F7265207468616E2030000000000000 PUSH1 0x44 DUP3 ADD MSTORE PUSH1 0x64 ADD JUMPDEST PUSH1 0x40 MLOAD DUP1 SWAP2 SUB SWAP1 REVERT JUMPDEST PUSH2 0x344 DUP2 PUSH2 0x994 JUMP JUMPDEST PUSH2 0x39C JUMPI PUSH1 0x40 MLOAD PUSH3 0x461BCD PUSH1 0xE5 SHL DUP2 MSTORE PUSH1 0x20 PUSH1 0x4 DUP3 ADD MSTORE PUSH1 0x23 PUSH1 0x24 DUP3 ADD MSTORE PUSH32 0x5468697320746F6B656E2063757272656E746C792069736E277420616C6C6F77 PUSH1 0x44 DUP3 ADD MSTORE PUSH3 0x32B217 PUSH1 0xE9 SHL PUSH1 0x64 DUP3 ADD MSTORE PUSH1 0x84 ADD PUSH2 0x332 JUMP JUMPDEST PUSH1 0x40 MLOAD PUSH4 0x23B872DD PUSH1 0xE0 SHL DUP2 MSTORE CALLER PUSH1 0x4 DUP3 ADD MSTORE ADDRESS PUSH1 0x24 DUP3 ADD MSTORE PUSH1 0x44 DUP2 ADD DUP4 SWAP1 MSTORE PUSH1 0x1 PUSH1 0x1 PUSH1 0xA0 SHL SUB DUP3 AND SWAP1 PUSH4 0x23B872DD SWAP1 PUSH1 0x64 ADD PUSH1 0x20 PUSH1 0x40 MLOAD DUP1 DUP4 SUB DUP2 PUSH1 0x0 DUP8 DUP1 EXTCODESIZE ISZERO DUP1 ISZERO PUSH2 0x3EA JUMPI PUSH1 0x0 DUP1 REVERT JUMPDEST POP GAS CALL ISZERO DUP1 ISZERO PUSH2 0x3FE JUMPI RETURNDATASIZE PUSH1 0x0 DUP1 RETURNDATACOPY RETURNDATASIZE PUSH1 0x0 REVERT JUMPDEST POP POP POP POP PUSH1 0x40 MLOAD RETURNDATASIZE PUSH1 0x1F NOT PUSH1 0x1F DUP3 ADD AND DUP3 ADD DUP1 PUSH1 0x40 MSTORE POP DUP2 ADD SWAP1 PUSH2 0x422 SWAP2 SWAP1 PUSH2 0xD2C JUMP JUMPDEST POP PUSH2 0x42D CALLER DUP3 PUSH2 0xBC4 JUMP JUMPDEST PUSH1 0x1 PUSH1 0x1 PUSH1 0xA0 SHL SUB DUP2 AND PUSH1 0x0 SWAP1 DUP2 MSTORE PUSH1 0x2 PUSH1 0x20 SWAP1 DUP2 MSTORE PUSH1 0x40 DUP1 DUP4 KECCAK256 CALLER DUP5 MSTORE SWAP1 SWAP2 MSTORE SWAP1 KECCAK256 SLOAD PUSH2 0x45C SWAP1 DUP4 SWAP1 PUSH2 0xD64 JUMP JUMPDEST PUSH1 0x1 PUSH1 0x1 PUSH1 0xA0 SHL SUB DUP3 AND PUSH1 0x0 SWAP1 DUP2 MSTORE PUSH1 0x2 PUSH1 0x20 SWAP1 DUP2 MSTORE PUSH1 0x40 DUP1 DUP4 KECCAK256 CALLER DUP5 MSTORE DUP3 MSTORE DUP1 DUP4 KECCAK256 SWAP4 SWAP1 SWAP4 SSTORE PUSH1 0x3 SWAP1 MSTORE KECCAK256 SLOAD PUSH1 0x1 EQ ISZERO PUSH2 0x4D4 JUMPI PUSH1 0x5 DUP1 SLOAD PUSH1 0x1 DUP2 ADD DUP3 SSTORE PUSH1 0x0 SWAP2 SWAP1 SWAP2 MSTORE PUSH32 0x36B6384B5ECA791C62761152D0C79BB0604C104A5FB6F4EB0703F3154BB3DB0 ADD DUP1 SLOAD PUSH1 0x1 PUSH1 0x1 PUSH1 0xA0 SHL SUB NOT AND CALLER OR SWAP1 SSTORE JUMPDEST POP POP JUMP JUMPDEST PUSH1 0x0 SLOAD PUSH1 0x1 PUSH1 0x1 PUSH1 0xA0 SHL SUB AND CALLER EQ PUSH2 0x502 JUMPI PUSH1 0x40 MLOAD PUSH3 0x461BCD PUSH1 0xE5 SHL DUP2 MSTORE PUSH1 0x4 ADD PUSH2 0x332 SWAP1 PUSH2 0xD7C JUMP JUMPDEST PUSH1 0x1 DUP1 SLOAD DUP1 DUP3 ADD DUP3 SSTORE PUSH1 0x0 SWAP2 SWAP1 SWAP2 MSTORE PUSH32 0xB10E2D527612073B26EECDFD717E6A320CF44B4AFAC2B0732D9FCBE2B7FA0CF6 ADD DUP1 SLOAD PUSH1 0x1 PUSH1 0x1 PUSH1 0xA0 SHL SUB NOT AND PUSH1 0x1 PUSH1 0x1 PUSH1 0xA0 SHL SUB SWAP3 SWAP1 SWAP3 AND SWAP2 SWAP1 SWAP2 OR SWAP1 SSTORE JUMP JUMPDEST PUSH1 0x1 PUSH1 0x1 PUSH1 0xA0 SHL SUB DUP3 AND PUSH1 0x0 SWAP1 DUP2 MSTORE PUSH1 0x3 PUSH1 0x20 MSTORE PUSH1 0x40 DUP2 KECCAK256 SLOAD PUSH2 0x578 JUMPI POP PUSH1 0x0 PUSH2 0x5D4 JUMP JUMPDEST PUSH1 0x0 DUP1 PUSH2 0x584 DUP5 PUSH2 0x9FE JUMP JUMPDEST SWAP1 SWAP3 POP SWAP1 POP PUSH2 0x594 DUP2 PUSH1 0xA PUSH2 0xE95 JUMP JUMPDEST PUSH1 0x1 PUSH1 0x1 PUSH1 0xA0 SHL SUB DUP1 DUP7 AND PUSH1 0x0 SWAP1 DUP2 MSTORE PUSH1 0x2 PUSH1 0x20 SWAP1 DUP2 MSTORE PUSH1 0x40 DUP1 DUP4 KECCAK256 SWAP4 DUP11 AND DUP4 MSTORE SWAP3 SWAP1 MSTORE KECCAK256 SLOAD PUSH2 0x5C5 SWAP1 DUP5 SWAP1 PUSH2 0xEA1 JUMP JUMPDEST PUSH2 0x5CF SWAP2 SWAP1 PUSH2 0xEC0 JUMP JUMPDEST SWAP3 POP POP POP JUMPDEST SWAP3 SWAP2 POP POP JUMP JUMPDEST PUSH1 0x1 PUSH1 0x1 PUSH1 0xA0 SHL SUB DUP2 AND PUSH1 0x0 SWAP1 DUP2 MSTORE PUSH1 0x2 PUSH1 0x20 SWAP1 DUP2 MSTORE PUSH1 0x40 DUP1 DUP4 KECCAK256 CALLER DUP5 MSTORE SWAP1 SWAP2 MSTORE SWAP1 KECCAK256 SLOAD DUP1 PUSH2 0x644 JUMPI PUSH1 0x40 MLOAD PUSH3 0x461BCD PUSH1 0xE5 SHL DUP2 MSTORE PUSH1 0x20 PUSH1 0x4 DUP3 ADD MSTORE PUSH1 0x16 PUSH1 0x24 DUP3 ADD MSTORE PUSH22 0x42616C616E6365206D757374206265206D6F7265203 PUSH1 0x54 SHL PUSH1 0x44 DUP3 ADD MSTORE PUSH1 0x64 ADD PUSH2 0x332 JUMP JUMPDEST PUSH1 0x40 MLOAD PUSH4 0xA9059CBB PUSH1 0xE0 SHL DUP2 MSTORE CALLER PUSH1 0x4 DUP3 ADD MSTORE PUSH1 0x24 DUP2 ADD DUP3 SWAP1 MSTORE PUSH1 0x1 PUSH1 0x1 PUSH1 0xA0 SHL SUB DUP4 AND SWAP1 PUSH4 0xA9059CBB SWAP1 PUSH1 0x44 ADD PUSH1 0x20 PUSH1 0x40 MLOAD DUP1 DUP4 SUB DUP2 PUSH1 0x0 DUP8 DUP1 EXTCODESIZE ISZERO DUP1 ISZERO PUSH2 0x68C JUMPI PUSH1 0x0 DUP1 REVERT JUMPDEST POP GAS CALL ISZERO DUP1 ISZERO PUSH2 0x6A0 JUMPI RETURNDATASIZE PUSH1 0x0 DUP1 RETURNDATACOPY RETURNDATASIZE PUSH1 0x0 REVERT JUMPDEST POP POP POP POP PUSH1 0x40 MLOAD RETURNDATASIZE PUSH1 0x1F NOT PUSH1 0x1F DUP3 ADD AND DUP3 ADD DUP1 PUSH1 0x40 MSTORE POP DUP2 ADD SWAP1 PUSH2 0x6C4 SWAP2 SWAP1 PUSH2 0xD2C JUMP JUMPDEST POP PUSH1 0x1 PUSH1 0x1 PUSH1 0xA0 SHL SUB DUP3 AND PUSH1 0x0 SWAP1 DUP2 MSTORE PUSH1 0x2 PUSH1 0x20 SWAP1 DUP2 MSTORE PUSH1 0x40 DUP1 DUP4 KECCAK256 CALLER DUP5 MSTORE DUP3 MSTORE DUP1 DUP4 KECCAK256 DUP4 SWAP1 SSTORE PUSH1 0x3 SWAP1 SWAP2 MSTORE SWAP1 KECCAK256 SLOAD PUSH2 0x6FF SWAP1 PUSH1 0x1 SWAP1 PUSH2 0xEE2 JUMP JUMPDEST CALLER PUSH1 0x0 SWAP1 DUP2 MSTORE PUSH1 0x3 PUSH1 0x20 MSTORE PUSH1 0x40 SWAP1 KECCAK256 SSTORE POP POP JUMP JUMPDEST PUSH1 0x1 DUP2 DUP2 SLOAD DUP2 LT PUSH2 0x723 JUMPI PUSH1 0x0 DUP1 REVERT JUMPDEST PUSH1 0x0 SWAP2 DUP3 MSTORE PUSH1 0x20 SWAP1 SWAP2 KECCAK256 ADD SLOAD PUSH1 0x1 PUSH1 0x1 PUSH1 0xA0 SHL SUB AND SWAP1 POP DUP2 JUMP JUMPDEST PUSH1 0x0 SLOAD PUSH1 0x1 PUSH1 0x1 PUSH1 0xA0 SHL SUB AND CALLER EQ PUSH2 0x767 JUMPI PUSH1 0x40 MLOAD PUSH3 0x461BCD PUSH1 0xE5 SHL DUP2 MSTORE PUSH1 0x4 ADD PUSH2 0x332 SWAP1 PUSH2 0xD7C JUMP JUMPDEST PUSH1 0x0 JUMPDEST PUSH1 0x5 SLOAD DUP2 LT ISZERO PUSH2 0x846 JUMPI PUSH1 0x0 PUSH1 0x5 DUP3 DUP2 SLOAD DUP2 LT PUSH2 0x789 JUMPI PUSH2 0x789 PUSH2 0xEF9 JUMP JUMPDEST PUSH1 0x0 SWAP2 DUP3 MSTORE PUSH1 0x20 DUP3 KECCAK256 ADD SLOAD PUSH1 0x1 PUSH1 0x1 PUSH1 0xA0 SHL SUB AND SWAP2 POP PUSH2 0x7A8 DUP3 PUSH2 0x8D7 JUMP JUMPDEST PUSH1 0x6 SLOAD PUSH1 0x40 MLOAD PUSH4 0xA9059CBB PUSH1 0xE0 SHL DUP2 MSTORE PUSH1 0x1 PUSH1 0x1 PUSH1 0xA0 SHL SUB DUP6 DUP2 AND PUSH1 0x4 DUP4 ADD MSTORE PUSH1 0x24 DUP3 ADD DUP5 SWAP1 MSTORE SWAP3 SWAP4 POP SWAP2 AND SWAP1 PUSH4 0xA9059CBB SWAP1 PUSH1 0x44 ADD PUSH1 0x20 PUSH1 0x40 MLOAD DUP1 DUP4 SUB DUP2 PUSH1 0x0 DUP8 DUP1 EXTCODESIZE ISZERO DUP1 ISZERO PUSH2 0x7F8 JUMPI PUSH1 0x0 DUP1 REVERT JUMPDEST POP GAS CALL ISZERO DUP1 ISZERO PUSH2 0x80C JUMPI RETURNDATASIZE PUSH1 0x0 DUP1 RETURNDATACOPY RETURNDATASIZE PUSH1 0x0 REVERT JUMPDEST POP POP POP POP PUSH1 0x40 MLOAD RETURNDATASIZE PUSH1 0x1F NOT PUSH1 0x1F DUP3 ADD AND DUP3 ADD DUP1 PUSH1 0x40 MSTORE POP DUP2 ADD SWAP1 PUSH2 0x830 SWAP2 SWAP1 PUSH2 0xD2C JUMP JUMPDEST POP POP POP DUP1 DUP1 PUSH2 0x83E SWAP1 PUSH2 0xF0F JUMP JUMPDEST SWAP2 POP POP PUSH2 0x76A JUMP JUMPDEST POP JUMP JUMPDEST PUSH1 0x0 SLOAD PUSH1 0x1 PUSH1 0x1 PUSH1 0xA0 SHL SUB AND CALLER EQ PUSH2 0x873 JUMPI PUSH1 0x40 MLOAD PUSH3 0x461BCD PUSH1 0xE5 SHL DUP2 MSTORE PUSH1 0x4 ADD PUSH2 0x332 SWAP1 PUSH2 0xD7C JUMP JUMPDEST PUSH2 0x87D PUSH1 0x0 PUSH2 0xC2F JUMP JUMPDEST JUMP JUMPDEST PUSH1 0x0 SLOAD PUSH1 0x1 PUSH1 0x1 PUSH1 0xA0 SHL SUB AND CALLER EQ PUSH2 0x8A9 JUMPI PUSH1 0x40 MLOAD PUSH3 0x461BCD PUSH1 0xE5 SHL DUP2 MSTORE PUSH1 0x4 ADD PUSH2 0x332 SWAP1 PUSH2 0xD7C JUMP JUMPDEST PUSH1 0x1 PUSH1 0x1 PUSH1 0xA0 SHL SUB SWAP2 DUP3 AND PUSH1 0x0 SWAP1 DUP2 MSTORE PUSH1 0x4 PUSH1 0x20 MSTORE PUSH1 0x40 SWAP1 KECCAK256 DUP1 SLOAD PUSH1 0x1 PUSH1 0x1 PUSH1 0xA0 SHL SUB NOT AND SWAP2 SWAP1 SWAP3 AND OR SWAP1 SSTORE JUMP JUMPDEST PUSH1 0x1 PUSH1 0x1 PUSH1 0xA0 SHL SUB DUP2 AND PUSH1 0x0 SWAP1 DUP2 MSTORE PUSH1 0x3 PUSH1 0x20 MSTORE PUSH1 0x40 DUP2 KECCAK256 SLOAD DUP2 SWAP1 PUSH2 0x931 JUMPI PUSH1 0x40 MLOAD PUSH3 0x461BCD PUSH1 0xE5 SHL DUP2 MSTORE PUSH1 0x20 PUSH1 0x4 DUP3 ADD MSTORE PUSH1 0x10 PUSH1 0x24 DUP3 ADD MSTORE PUSH16 0x4E6F20746F6B656E207374616B656421 PUSH1 0x80 SHL PUSH1 0x44 DUP3 ADD MSTORE PUSH1 0x64 ADD PUSH2 0x332 JUMP JUMPDEST PUSH1 0x0 JUMPDEST PUSH1 0x1 SLOAD DUP2 LT ISZERO PUSH2 0x98D JUMPI PUSH2 0x96F DUP5 PUSH1 0x1 DUP4 DUP2 SLOAD DUP2 LT PUSH2 0x955 JUMPI PUSH2 0x955 PUSH2 0xEF9 JUMP JUMPDEST PUSH1 0x0 SWAP2 DUP3 MSTORE PUSH1 0x20 SWAP1 SWAP2 KECCAK256 ADD SLOAD PUSH1 0x1 PUSH1 0x1 PUSH1 0xA0 SHL SUB AND PUSH2 0x553 JUMP JUMPDEST PUSH2 0x979 SWAP1 DUP4 PUSH2 0xD64 JUMP JUMPDEST SWAP2 POP DUP1 PUSH2 0x985 DUP2 PUSH2 0xF0F JUMP JUMPDEST SWAP2 POP POP PUSH2 0x934 JUMP JUMPDEST POP SWAP3 SWAP2 POP POP JUMP JUMPDEST PUSH1 0x0 DUP1 JUMPDEST PUSH1 0x1 SLOAD DUP2 LT ISZERO PUSH2 0x9F5 JUMPI DUP3 PUSH1 0x1 PUSH1 0x1 PUSH1 0xA0 SHL SUB AND PUSH1 0x1 DUP3 DUP2 SLOAD DUP2 LT PUSH2 0x9BF JUMPI PUSH2 0x9BF PUSH2 0xEF9 JUMP JUMPDEST PUSH1 0x0 SWAP2 DUP3 MSTORE PUSH1 0x20 SWAP1 SWAP2 KECCAK256 ADD SLOAD PUSH1 0x1 PUSH1 0x1 PUSH1 0xA0 SHL SUB AND EQ ISZERO PUSH2 0x9E3 JUMPI POP PUSH1 0x1 SWAP3 SWAP2 POP POP JUMP JUMPDEST DUP1 PUSH2 0x9ED DUP2 PUSH2 0xF0F JUMP JUMPDEST SWAP2 POP POP PUSH2 0x998 JUMP JUMPDEST POP PUSH1 0x0 SWAP3 SWAP2 POP POP JUMP JUMPDEST PUSH1 0x1 PUSH1 0x1 PUSH1 0xA0 SHL SUB DUP1 DUP3 AND PUSH1 0x0 SWAP1 DUP2 MSTORE PUSH1 0x4 PUSH1 0x20 DUP2 SWAP1 MSTORE PUSH1 0x40 DUP1 DUP4 KECCAK256 SLOAD DUP2 MLOAD PUSH4 0x3FABE5A3 PUSH1 0xE2 SHL DUP2 MSTORE SWAP2 MLOAD SWAP4 SWAP5 DUP6 SWAP5 SWAP2 AND SWAP3 DUP4 SWAP3 DUP6 SWAP3 DUP5 SWAP3 PUSH4 0xFEAF968C SWAP3 DUP1 DUP3 ADD SWAP3 PUSH1 0xA0 SWAP3 SWAP1 SWAP2 DUP3 SWAP1 SUB ADD DUP2 DUP7 DUP1 EXTCODESIZE ISZERO DUP1 ISZERO PUSH2 0xA59 JUMPI PUSH1 0x0 DUP1 REVERT JUMPDEST POP GAS STATICCALL ISZERO DUP1 ISZERO PUSH2 0xA6D JUMPI RETURNDATASIZE PUSH1 0x0 DUP1 RETURNDATACOPY RETURNDATASIZE PUSH1 0x0 REVERT JUMPDEST POP POP POP POP PUSH1 0x40 MLOAD RETURNDATASIZE PUSH1 0x1F NOT PUSH1 0x1F DUP3 ADD AND DUP3 ADD DUP1 PUSH1 0x40 MSTORE POP DUP2 ADD SWAP1 PUSH2 0xA91 SWAP2 SWAP1 PUSH2 0xF44 JUMP JUMPDEST POP POP POP SWAP2 POP POP PUSH1 0x0 DUP3 PUSH1 0x1 PUSH1 0x1 PUSH1 0xA0 SHL SUB AND PUSH4 0x313CE567 PUSH1 0x40 MLOAD DUP2 PUSH4 0xFFFFFFFF AND PUSH1 0xE0 SHL DUP2 MSTORE PUSH1 0x4 ADD PUSH1 0x20 PUSH1 0x40 MLOAD DUP1 DUP4 SUB DUP2 DUP7 DUP1 EXTCODESIZE ISZERO DUP1 ISZERO PUSH2 0xAD2 JUMPI PUSH1 0x0 DUP1 REVERT JUMPDEST POP GAS STATICCALL ISZERO DUP1 ISZERO PUSH2 0xAE6 JUMPI RETURNDATASIZE PUSH1 0x0 DUP1 RETURNDATACOPY RETURNDATASIZE PUSH1 0x0 REVERT JUMPDEST POP POP POP POP PUSH1 0x40 MLOAD RETURNDATASIZE PUSH1 0x1F NOT PUSH1 0x1F DUP3 ADD AND DUP3 ADD DUP1 PUSH1 0x40 MSTORE POP DUP2 ADD SWAP1 PUSH2 0xB0A SWAP2 SWAP1 PUSH2 0xF94 JUMP JUMPDEST SWAP2 SWAP8 PUSH1 0xFF SWAP1 SWAP3 AND SWAP7 POP SWAP1 SWAP5 POP POP POP POP POP JUMP JUMPDEST PUSH1 0x0 SLOAD PUSH1 0x1 PUSH1 0x1 PUSH1 0xA0 SHL SUB AND CALLER EQ PUSH2 0xB46 JUMPI PUSH1 0x40 MLOAD PUSH3 0x461BCD PUSH1 0xE5 SHL DUP2 MSTORE PUSH1 0x4 ADD PUSH2 0x332 SWAP1 PUSH2 0xD7C JUMP JUMPDEST PUSH1 0x1 PUSH1 0x1 PUSH1 0xA0 SHL SUB DUP2 AND PUSH2 0xBAB JUMPI PUSH1 0x40 MLOAD PUSH3 0x461BCD PUSH1 0xE5 SHL DUP2 MSTORE PUSH1 0x20 PUSH1 0x4 DUP3 ADD MSTORE PUSH1 0x26 PUSH1 0x24 DUP3 ADD MSTORE PUSH32 0x4F776E61626C653A206E6577206F776E657220697320746865207A65726F2061 PUSH1 0x44 DUP3 ADD MSTORE PUSH6 0x646472657373 PUSH1 0xD0 SHL PUSH1 0x64 DUP3 ADD MSTORE PUSH1 0x84 ADD PUSH2 0x332 JUMP JUMPDEST PUSH2 0x846 DUP2 PUSH2 0xC2F JUMP JUMPDEST PUSH1 0x5 DUP2 DUP2 SLOAD DUP2 LT PUSH2 0x723 JUMPI PUSH1 0x0 DUP1 REVERT JUMPDEST PUSH1 0x1 PUSH1 0x1 PUSH1 0xA0 SHL SUB DUP1 DUP3 AND PUSH1 0x0 SWAP1 DUP2 MSTORE PUSH1 0x2 PUSH1 0x20 SWAP1 DUP2 MSTORE PUSH1 0x40 DUP1 DUP4 KECCAK256 SWAP4 DUP7 AND DUP4 MSTORE SWAP3 SWAP1 MSTORE KECCAK256 SLOAD PUSH2 0x4D4 JUMPI PUSH1 0x1 PUSH1 0x1 PUSH1 0xA0 SHL SUB DUP3 AND PUSH1 0x0 SWAP1 DUP2 MSTORE PUSH1 0x3 PUSH1 0x20 MSTORE PUSH1 0x40 SWAP1 KECCAK256 SLOAD PUSH2 0xC12 SWAP1 PUSH1 0x1 PUSH2 0xD64 JUMP JUMPDEST PUSH1 0x1 PUSH1 0x1 PUSH1 0xA0 SHL SUB DUP4 AND PUSH1 0x0 SWAP1 DUP2 MSTORE PUSH1 0x3 PUSH1 0x20 MSTORE PUSH1 0x40 SWAP1 KECCAK256 SSTORE POP POP JUMP JUMPDEST PUSH1 0x0 DUP1 SLOAD PUSH1 0x1 PUSH1 0x1 PUSH1 0xA0 SHL SUB DUP4 DUP2 AND PUSH1 0x1 PUSH1 0x1 PUSH1 0xA0 SHL SUB NOT DUP4 AND DUP2 OR DUP5 SSTORE PUSH1 0x40 MLOAD SWAP2 SWAP1 SWAP3 AND SWAP3 DUP4 SWAP2 PUSH32 0x8BE0079C531659141344CD1FD0A4F28419497F9722A3DAAFE3B4186F6B6457E0 SWAP2 SWAP1 LOG3 POP POP JUMP JUMPDEST DUP1 CALLDATALOAD PUSH1 0x1 PUSH1 0x1 PUSH1 0xA0 SHL SUB DUP2 AND DUP2 EQ PUSH2 0xC96 JUMPI PUSH1 0x0 DUP1 REVERT JUMPDEST SWAP2 SWAP1 POP JUMP JUMPDEST PUSH1 0x0 DUP1 PUSH1 0x40 DUP4 DUP6 SUB SLT ISZERO PUSH2 0xCAE JUMPI PUSH1 0x0 DUP1 REVERT JUMPDEST DUP3 CALLDATALOAD SWAP2 POP PUSH2 0xCBE PUSH1 0x20 DUP5 ADD PUSH2 0xC7F JUMP JUMPDEST SWAP1 POP SWAP3 POP SWAP3 SWAP1 POP JUMP JUMPDEST PUSH1 0x0 PUSH1 0x20 DUP3 DUP5 SUB SLT ISZERO PUSH2 0xCD9 JUMPI PUSH1 0x0 DUP1 REVERT JUMPDEST PUSH2 0xCE2 DUP3 PUSH2 0xC7F JUMP JUMPDEST SWAP4 SWAP3 POP POP POP JUMP JUMPDEST PUSH1 0x0 DUP1 PUSH1 0x40 DUP4 DUP6 SUB SLT ISZERO PUSH2 0xCFC JUMPI PUSH1 0x0 DUP1 REVERT JUMPDEST PUSH2 0xD05 DUP4 PUSH2 0xC7F JUMP JUMPDEST SWAP2 POP PUSH2 0xCBE PUSH1 0x20 DUP5 ADD PUSH2 0xC7F JUMP JUMPDEST PUSH1 0x0 PUSH1 0x20 DUP3 DUP5 SUB SLT ISZERO PUSH2 0xD25 JUMPI PUSH1 0x0 DUP1 REVERT JUMPDEST POP CALLDATALOAD SWAP2 SWAP1 POP JUMP JUMPDEST PUSH1 0x0 PUSH1 0x20 DUP3 DUP5 SUB SLT ISZERO PUSH2 0xD3E JUMPI PUSH1 0x0 DUP1 REVERT JUMPDEST DUP2 MLOAD DUP1 ISZERO ISZERO DUP2 EQ PUSH2 0xCE2 JUMPI PUSH1 0x0 DUP1 REVERT JUMPDEST PUSH4 0x4E487B71 PUSH1 0xE0 SHL PUSH1 0x0 MSTORE PUSH1 0x11 PUSH1 0x4 MSTORE PUSH1 0x24 PUSH1 0x0 REVERT JUMPDEST PUSH1 0x0 DUP3 NOT DUP3 GT ISZERO PUSH2 0xD77 JUMPI PUSH2 0xD77 PUSH2 0xD4E JUMP JUMPDEST POP ADD SWAP1 JUMP JUMPDEST PUSH1 0x20 DUP1 DUP3 MSTORE DUP2 DUP2 ADD MSTORE PUSH32 0x4F776E61626C653A2063616C6C6572206973206E6F7420746865206F776E6572 PUSH1 0x40 DUP3 ADD MSTORE PUSH1 0x60 ADD SWAP1 JUMP JUMPDEST PUSH1 0x1 DUP2 DUP2 JUMPDEST DUP1 DUP6 GT ISZERO PUSH2 0xDEC JUMPI DUP2 PUSH1 0x0 NOT DIV DUP3 GT ISZERO PUSH2 0xDD2 JUMPI PUSH2 0xDD2 PUSH2 0xD4E JUMP JUMPDEST DUP1 DUP6 AND ISZERO PUSH2 0xDDF JUMPI SWAP2 DUP2 MUL SWAP2 JUMPDEST SWAP4 DUP5 SHR SWAP4 SWAP1 DUP1 MUL SWAP1 PUSH2 0xDB6 JUMP JUMPDEST POP SWAP3 POP SWAP3 SWAP1 POP JUMP JUMPDEST PUSH1 0x0 DUP3 PUSH2 0xE03 JUMPI POP PUSH1 0x1 PUSH2 0x5D4 JUMP JUMPDEST DUP2 PUSH2 0xE10 JUMPI POP PUSH1 0x0 PUSH2 0x5D4 JUMP JUMPDEST DUP2 PUSH1 0x1 DUP2 EQ PUSH2 0xE26 JUMPI PUSH1 0x2 DUP2 EQ PUSH2 0xE30 JUMPI PUSH2 0xE4C JUMP JUMPDEST PUSH1 0x1 SWAP2 POP POP PUSH2 0x5D4 JUMP JUMPDEST PUSH1 0xFF DUP5 GT ISZERO PUSH2 0xE41 JUMPI PUSH2 0xE41 PUSH2 0xD4E JUMP JUMPDEST POP POP PUSH1 0x1 DUP3 SHL PUSH2 0x5D4 JUMP JUMPDEST POP PUSH1 0x20 DUP4 LT PUSH2 0x133 DUP4 LT AND PUSH1 0x4E DUP5 LT PUSH1 0xB DUP5 LT AND OR ISZERO PUSH2 0xE6F JUMPI POP DUP2 DUP2 EXP PUSH2 0x5D4 JUMP JUMPDEST PUSH2 0xE79 DUP4 DUP4 PUSH2 0xDB1 JUMP JUMPDEST DUP1 PUSH1 0x0 NOT DIV DUP3 GT ISZERO PUSH2 0xE8D JUMPI PUSH2 0xE8D PUSH2 0xD4E JUMP JUMPDEST MUL SWAP4 SWAP3 POP POP POP JUMP JUMPDEST PUSH1 0x0 PUSH2 0xCE2 DUP4 DUP4 PUSH2 0xDF4 JUMP JUMPDEST PUSH1 0x0 DUP2 PUSH1 0x0 NOT DIV DUP4 GT DUP3 ISZERO ISZERO AND ISZERO PUSH2 0xEBB JUMPI PUSH2 0xEBB PUSH2 0xD4E JUMP JUMPDEST POP MUL SWAP1 JUMP JUMPDEST PUSH1 0x0 DUP3 PUSH2 0xEDD JUMPI PUSH4 0x4E487B71 PUSH1 0xE0 SHL PUSH1 0x0 MSTORE PUSH1 0x12 PUSH1 0x4 MSTORE PUSH1 0x24 PUSH1 0x0 REVERT JUMPDEST POP DIV SWAP1 JUMP JUMPDEST PUSH1 0x0 DUP3 DUP3 LT ISZERO PUSH2 0xEF4 JUMPI PUSH2 0xEF4 PUSH2 0xD4E JUMP JUMPDEST POP SUB SWAP1 JUMP JUMPDEST PUSH4 0x4E487B71 PUSH1 0xE0 SHL PUSH1 0x0 MSTORE PUSH1 0x32 PUSH1 0x4 MSTORE PUSH1 0x24 PUSH1 0x0 REVERT JUMPDEST PUSH1 0x0 PUSH1 0x0 NOT DUP3 EQ ISZERO PUSH2 0xF23 JUMPI PUSH2 0xF23 PUSH2 0xD4E JUMP JUMPDEST POP PUSH1 0x1 ADD SWAP1 JUMP JUMPDEST DUP1 MLOAD PUSH10 0xFFFFFFFFFFFFFFFFFFFF DUP2 AND DUP2 EQ PUSH2 0xC96 JUMPI PUSH1 0x0 DUP1 REVERT JUMPDEST PUSH1 0x0 DUP1 PUSH1 0x0 DUP1 PUSH1 0x0 PUSH1 0xA0 DUP7 DUP9 SUB SLT ISZERO PUSH2 0xF5C JUMPI PUSH1 0x0 DUP1 REVERT JUMPDEST PUSH2 0xF65 DUP7 PUSH2 0xF2A JUMP JUMPDEST SWAP5 POP PUSH1 0x20 DUP7 ADD MLOAD SWAP4 POP PUSH1 0x40 DUP7 ADD MLOAD SWAP3 POP PUSH1 0x60 DUP7 ADD MLOAD SWAP2 POP PUSH2 0xF88 PUSH1 0x80 DUP8 ADD PUSH2 0xF2A JUMP JUMPDEST SWAP1 POP SWAP3 SWAP6 POP SWAP3 SWAP6 SWAP1 SWAP4 POP JUMP JUMPDEST PUSH1 0x0 PUSH1 0x20 DUP3 DUP5 SUB SLT ISZERO PUSH2 0xFA6 JUMPI PUSH1 0x0 DUP1 REVERT JUMPDEST DUP2 MLOAD PUSH1 0xFF DUP2 AND DUP2 EQ PUSH2 0xCE2 JUMPI PUSH1 0x0 DUP1 REVERT INVALID LOG2 PUSH5 0x6970667358 0x22 SLT KECCAK256 0xCE 0x27 SELFBALANCE 0xB9 PUSH9 0x9B162EEDFEBB87A77D INVALID 0xCB DUP2 0xC5 0x4A 0xB5 DUP4 0xEF 0xF6 DUP1 PUSH3 0x29BCBE LT SELFDESTRUCT LOG4 0x2B PUSH5 0x736F6C6343 STOP ADDMOD MULMOD STOP CALLER ","sha1":"ef343aee606e1d65bb99a93c3ccfd366d693ceec","source":"// SPDX-License-Identifier: MIT\npragma solidity ^0.8.0;\nimport \"@openzeppelin/contracts/access/Ownable.sol\";\nimport \"@openzeppelin/contracts/token/ERC20/IERC20.sol\";\nimport \"@chainlink/contracts/src/v0.8/interfaces/AggregatorV3Interface.sol\";\n\ncontract TokenFarm is Ownable {\n    //stake tokens\n    //unstake tokens\n    //issue tokens\n    //addAllowed tokens\n    //GetEthVlue\n    address[] public allowedTokens;\n    mapping(address => mapping(address => uint256)) public stakingBalance; //maping token address -> staker address -> amount\n    mapping(address => uint256) public uniqueTokenStaked;\n    mapping(address => address) public tokenPriceFeedMapping;\n    address[] public stakers;\n    IERC20 public dappToken;\n\n    constructor(address _dappTokenAddress) public {\n        dappToken = IERC20(_dappTokenAddress);\n    }\n\n    function setPriceFeedContract(address _token, address _priceFeed)\n        public\n        onlyOwner\n    {\n        tokenPriceFeedMapping[_token] = _priceFeed;\n    }\n\n    //100 ETH 1:1 - for every 1 ETH we give 1 DappToken\n    //if 50 ETH & 50 DAI stacked, we want to give a reward 1 Dapp Token / 1 DAI -> convert 50 ETH to DAI\n    function issueTokens() public onlyOwner {\n        for (\n            uint256 stakerIndex = 0;\n            stakerIndex < stakers.length;\n            stakerIndex++\n        ) {\n            address recipient = stakers[stakerIndex];\n            //dappToken.transfer(recipient, ???);\n            uint256 totalValue = getUserTotalValue(recipient); //  totalValue is - ???\n            dappToken.transfer(recipient, totalValue);\n        }\n    }\n\n    function getUserTotalValue(address _user) public view returns (uint256) {\n        uint256 totalValue = 0;\n        require(uniqueTokenStaked[_user] > 0, \"No token staked!\");\n        for (\n            uint256 allowedTokenIndex = 0;\n            allowedTokenIndex < allowedTokens.length;\n            allowedTokenIndex++\n        ) {\n            totalValue =\n                totalValue +\n                getUserSingleTokenValue(\n                    _user,\n                    allowedTokens[allowedTokenIndex]\n                );\n        }\n        return totalValue;\n    }\n\n    function getUserSingleTokenValue(address _user, address _token)\n        public\n        view\n        returns (uint256)\n    {\n        if (uniqueTokenStaked[_user] <= 0) {\n            return 0;\n        }\n        //price of the token * stakingBalance[token][user]\n        (uint256 price, uint256 decimals) = getTokenValue(_token);\n        return (stakingBalance[_token][_user] * price) / 10**decimals;\n    }\n\n    function getTokenValue(address _token)\n        public\n        view\n        returns (uint256, uint256)\n    {\n        address priceFeedAddress = tokenPriceFeedMapping[_token];\n        AggregatorV3Interface priceFeed = AggregatorV3Interface(\n            priceFeedAddress\n        );\n        (, int256 price, , , ) = priceFeed.latestRoundData();\n        uint256 decimals = uint256(priceFeed.decimals());\n        return (uint256(price), decimals);\n    }\n\n    function stakeTokens(uint256 _amount, address _token) public {\n        require(_amount > 0, \"Amount must be more than 0\");\n        require(tokenIsAllowed(_token), \"This token currently isn't allowed.\");\n        IERC20(_token).transferFrom(msg.sender, address(this), _amount);\n        updateUniqueTokensStaked(msg.sender, _token);\n        stakingBalance[_token][msg.sender] =\n            stakingBalance[_token][msg.sender] +\n            _amount;\n        if (uniqueTokenStaked[msg.sender] == 1) {\n            stakers.push(msg.sender);\n        }\n    }\n\n    function unstakeTokens(address _token) public {\n        uint256 balance = stakingBalance[_token][msg.sender];\n        require(balance > 0, \"Balance must be more 0\");\n        IERC20(_token).transfer(msg.sender, balance); // need to check address(this)\n        stakingBalance[_token][msg.sender] = 0;\n        uniqueTokenStaked[msg.sender] = uniqueTokenStaked[msg.sender] - 1;\n    }\n\n    function updateUniqueTokensStaked(address _user, address _token) internal {\n        if (stakingBalance[_token][_user] <= 0) {\n            uniqueTokenStaked[_user] = uniqueTokenStaked[_user] + 1;\n        }\n    }\n\n    function tokenIsAllowed(address _token) public returns (bool) {\n        for (\n            uint256 indexOfToken = 0;\n            indexOfToken < allowedTokens.length;\n            indexOfToken++\n        ) {\n            if (allowedTokens[indexOfToken] == _token) {\n                return true;\n            }\n        }\n        return false;\n    }\n\n    function addAllowedTokens(address _token) public onlyOwner {\n        allowedTokens.push(_token);\n    }\n}\n","sourcePath":"contracts/TokenFarm.sol","type":"contract","deployment":{"address":"0xde28D96869821849338dc1a66BaeC46c3D7cCd3F","chainid":"42","blockHeight":29458111}}